:03000000020006F5
:03005F0002000399
:0300030002008A6E
:200062007CC07DD47E017F00EC24FFF8ED34FFF9EE34FFFAEF34FFFB880489058A068B075F
:20008200E8494A4B70E2002275C62975BE0F75B0007CC07DD47E017F00EC24FFF8ED34FFA7
:1C00A200F9EE34FFFAEF34FFFB880489058A068B07E8494A4B70E200B2B280D504
:06003500E478FFF6D8FD9F
:200013007900E94400601B7A009000C2780075A000E493F2A308B8000205A0D9F4DAF275D2
:02003300A0FF2C
:20003B007800E84400600A790075A000E4F309D8FC7800E84400600C7900900000E4F0A3C5
:04005B00D8FCD9FAFA
:0D0006007581071200BEE582600302000351
:0400BE007582002225
:00000001FF
